{
  "_format": "hh-sol-artifact-1",
  "contractName": "GaiaProtocolToken",
  "sourceName": "contracts/token/GaiaProtocolToken.sol",
  "abi": [
    {
      "inputs": [],
      "stateMutability": "nonpayable",
      "type": "constructor"
    },
    {
      "inputs": [],
      "name": "ECDSAInvalidSignature",
      "type": "error"
    },
    {
      "inputs": [
        {
          "internalType": "uint256",
          "name": "length",
          "type": "uint256"
        }
      ],
      "name": "ECDSAInvalidSignatureLength",
      "type": "error"
    },
    {
      "inputs": [
        {
          "internalType": "bytes32",
          "name": "s",
          "type": "bytes32"
        }
      ],
      "name": "ECDSAInvalidSignatureS",
      "type": "error"
    },
    {
      "inputs": [
        {
          "internalType": "address",
          "name": "spender",
          "type": "address"
        },
        {
          "internalType": "uint256",
          "name": "allowance",
          "type": "uint256"
        },
        {
          "internalType": "uint256",
          "name": "needed",
          "type": "uint256"
        }
      ],
      "name": "ERC20InsufficientAllowance",
      "type": "error"
    },
    {
      "inputs": [
        {
          "internalType": "address",
          "name": "sender",
          "type": "address"
        },
        {
          "internalType": "uint256",
          "name": "balance",
          "type": "uint256"
        },
        {
          "internalType": "uint256",
          "name": "needed",
          "type": "uint256"
        }
      ],
      "name": "ERC20InsufficientBalance",
      "type": "error"
    },
    {
      "inputs": [
        {
          "internalType": "address",
          "name": "approver",
          "type": "address"
        }
      ],
      "name": "ERC20InvalidApprover",
      "type": "error"
    },
    {
      "inputs": [
        {
          "internalType": "address",
          "name": "receiver",
          "type": "address"
        }
      ],
      "name": "ERC20InvalidReceiver",
      "type": "error"
    },
    {
      "inputs": [
        {
          "internalType": "address",
          "name": "sender",
          "type": "address"
        }
      ],
      "name": "ERC20InvalidSender",
      "type": "error"
    },
    {
      "inputs": [
        {
          "internalType": "address",
          "name": "spender",
          "type": "address"
        }
      ],
      "name": "ERC20InvalidSpender",
      "type": "error"
    },
    {
      "inputs": [
        {
          "internalType": "uint256",
          "name": "deadline",
          "type": "uint256"
        }
      ],
      "name": "ERC2612ExpiredSignature",
      "type": "error"
    },
    {
      "inputs": [
        {
          "internalType": "address",
          "name": "signer",
          "type": "address"
        },
        {
          "internalType": "address",
          "name": "owner",
          "type": "address"
        }
      ],
      "name": "ERC2612InvalidSigner",
      "type": "error"
    },
    {
      "inputs": [
        {
          "internalType": "address",
          "name": "account",
          "type": "address"
        },
        {
          "internalType": "uint256",
          "name": "currentNonce",
          "type": "uint256"
        }
      ],
      "name": "InvalidAccountNonce",
      "type": "error"
    },
    {
      "inputs": [],
      "name": "InvalidShortString",
      "type": "error"
    },
    {
      "inputs": [
        {
          "internalType": "string",
          "name": "str",
          "type": "string"
        }
      ],
      "name": "StringTooLong",
      "type": "error"
    },
    {
      "anonymous": false,
      "inputs": [
        {
          "indexed": true,
          "internalType": "address",
          "name": "owner",
          "type": "address"
        },
        {
          "indexed": true,
          "internalType": "address",
          "name": "spender",
          "type": "address"
        },
        {
          "indexed": false,
          "internalType": "uint256",
          "name": "value",
          "type": "uint256"
        }
      ],
      "name": "Approval",
      "type": "event"
    },
    {
      "anonymous": false,
      "inputs": [],
      "name": "EIP712DomainChanged",
      "type": "event"
    },
    {
      "anonymous": false,
      "inputs": [
        {
          "indexed": true,
          "internalType": "address",
          "name": "from",
          "type": "address"
        },
        {
          "indexed": true,
          "internalType": "address",
          "name": "to",
          "type": "address"
        },
        {
          "indexed": false,
          "internalType": "uint256",
          "name": "value",
          "type": "uint256"
        }
      ],
      "name": "Transfer",
      "type": "event"
    },
    {
      "inputs": [],
      "name": "DOMAIN_SEPARATOR",
      "outputs": [
        {
          "internalType": "bytes32",
          "name": "",
          "type": "bytes32"
        }
      ],
      "stateMutability": "view",
      "type": "function"
    },
    {
      "inputs": [
        {
          "internalType": "address",
          "name": "owner",
          "type": "address"
        },
        {
          "internalType": "address",
          "name": "spender",
          "type": "address"
        }
      ],
      "name": "allowance",
      "outputs": [
        {
          "internalType": "uint256",
          "name": "",
          "type": "uint256"
        }
      ],
      "stateMutability": "view",
      "type": "function"
    },
    {
      "inputs": [
        {
          "internalType": "address",
          "name": "spender",
          "type": "address"
        },
        {
          "internalType": "uint256",
          "name": "value",
          "type": "uint256"
        }
      ],
      "name": "approve",
      "outputs": [
        {
          "internalType": "bool",
          "name": "",
          "type": "bool"
        }
      ],
      "stateMutability": "nonpayable",
      "type": "function"
    },
    {
      "inputs": [
        {
          "internalType": "address",
          "name": "account",
          "type": "address"
        }
      ],
      "name": "balanceOf",
      "outputs": [
        {
          "internalType": "uint256",
          "name": "",
          "type": "uint256"
        }
      ],
      "stateMutability": "view",
      "type": "function"
    },
    {
      "inputs": [],
      "name": "decimals",
      "outputs": [
        {
          "internalType": "uint8",
          "name": "",
          "type": "uint8"
        }
      ],
      "stateMutability": "view",
      "type": "function"
    },
    {
      "inputs": [],
      "name": "eip712Domain",
      "outputs": [
        {
          "internalType": "bytes1",
          "name": "fields",
          "type": "bytes1"
        },
        {
          "internalType": "string",
          "name": "name",
          "type": "string"
        },
        {
          "internalType": "string",
          "name": "version",
          "type": "string"
        },
        {
          "internalType": "uint256",
          "name": "chainId",
          "type": "uint256"
        },
        {
          "internalType": "address",
          "name": "verifyingContract",
          "type": "address"
        },
        {
          "internalType": "bytes32",
          "name": "salt",
          "type": "bytes32"
        },
        {
          "internalType": "uint256[]",
          "name": "extensions",
          "type": "uint256[]"
        }
      ],
      "stateMutability": "view",
      "type": "function"
    },
    {
      "inputs": [],
      "name": "name",
      "outputs": [
        {
          "internalType": "string",
          "name": "",
          "type": "string"
        }
      ],
      "stateMutability": "view",
      "type": "function"
    },
    {
      "inputs": [
        {
          "internalType": "address",
          "name": "owner",
          "type": "address"
        }
      ],
      "name": "nonces",
      "outputs": [
        {
          "internalType": "uint256",
          "name": "",
          "type": "uint256"
        }
      ],
      "stateMutability": "view",
      "type": "function"
    },
    {
      "inputs": [
        {
          "internalType": "address",
          "name": "owner",
          "type": "address"
        },
        {
          "internalType": "address",
          "name": "spender",
          "type": "address"
        },
        {
          "internalType": "uint256",
          "name": "value",
          "type": "uint256"
        },
        {
          "internalType": "uint256",
          "name": "deadline",
          "type": "uint256"
        },
        {
          "internalType": "uint8",
          "name": "v",
          "type": "uint8"
        },
        {
          "internalType": "bytes32",
          "name": "r",
          "type": "bytes32"
        },
        {
          "internalType": "bytes32",
          "name": "s",
          "type": "bytes32"
        }
      ],
      "name": "permit",
      "outputs": [],
      "stateMutability": "nonpayable",
      "type": "function"
    },
    {
      "inputs": [],
      "name": "symbol",
      "outputs": [
        {
          "internalType": "string",
          "name": "",
          "type": "string"
        }
      ],
      "stateMutability": "view",
      "type": "function"
    },
    {
      "inputs": [],
      "name": "totalSupply",
      "outputs": [
        {
          "internalType": "uint256",
          "name": "",
          "type": "uint256"
        }
      ],
      "stateMutability": "view",
      "type": "function"
    },
    {
      "inputs": [
        {
          "internalType": "address",
          "name": "to",
          "type": "address"
        },
        {
          "internalType": "uint256",
          "name": "value",
          "type": "uint256"
        }
      ],
      "name": "transfer",
      "outputs": [
        {
          "internalType": "bool",
          "name": "",
          "type": "bool"
        }
      ],
      "stateMutability": "nonpayable",
      "type": "function"
    },
    {
      "inputs": [
        {
          "internalType": "address",
          "name": "from",
          "type": "address"
        },
        {
          "internalType": "address",
          "name": "to",
          "type": "address"
        },
        {
          "internalType": "uint256",
          "name": "value",
          "type": "uint256"
        }
      ],
      "name": "transferFrom",
      "outputs": [
        {
          "internalType": "bool",
          "name": "",
          "type": "bool"
        }
      ],
      "stateMutability": "nonpayable",
      "type": "function"
    }
  ],
  "bytecode": "0x610160604052346104e7576040516100186040826104ec565b600d8152602081016c11d85a5848141c9bdd1bd8dbdb609a1b8152604051906100426040836104ec565b600d82526c11d85a5848141c9bdd1bd8dbdb609a1b60208301526040519261006b6040856104ec565b60048452634741494160e01b60208501526040519361008b6040866104ec565b60018552603160f81b60208601908152845190946001600160401b0382116103e45760035490600182811c921680156104dd575b60208310146103c45781601f84931161046d575b50602090601f8311600114610405576000926103fa575b50508160011b916000199060031b1c1916176003555b8051906001600160401b0382116103e45760045490600182811c921680156103da575b60208310146103c45781601f849311610354575b50602090601f83116001146102ec576000926102e1575b50508160011b916000199060031b1c1916176004555b61016d8161050f565b6101205261017a846106bd565b61014052519020918260e05251902080610100524660a0526040519060208201927f8b73c3c69bb8fe3d512ecc4cf759cc79239f7b179b0ffacaa9a75d522b39400f8452604083015260608201524660808201523060a082015260a081526101e360c0826104ec565b5190206080523060c05233156102cb576002546a52b7d2dcc80cd2e400000081018091116102b557600255600033815280602052604081206a52b7d2dcc80cd2e40000008154019055604051906a52b7d2dcc80cd2e400000082527fddf252ad1be2c89b69c2b068fc378daa952ba7f163c4a11628f55a4df523b3ef60203393a3604051610c86908161085c82396080518161094b015260a05181610a08015260c05181610915015260e0518161099a015261010051816109c00152610120518161037e015261014051816103a70152f35b634e487b7160e01b600052601160045260246000fd5b63ec442f0560e01b600052600060045260246000fd5b01519050388061014e565b600460009081528281209350601f198516905b81811061033c5750908460019594939210610323575b505050811b01600455610164565b015160001960f88460031b161c19169055388080610315565b929360206001819287860151815501950193016102ff565b60046000529091507f8a35acfbc15ff81a39ae7d344fd709f28e8600b4aa8c65c6b64bfe7fe36bd19b601f840160051c810191602085106103ba575b90601f859493920160051c01905b8181106103ab5750610137565b6000815584935060010161039e565b9091508190610390565b634e487b7160e01b600052602260045260246000fd5b91607f1691610123565b634e487b7160e01b600052604160045260246000fd5b0151905038806100ea565b600360009081528281209350601f198516905b818110610455575090846001959493921061043c575b505050811b01600355610100565b015160001960f88460031b161c1916905538808061042e565b92936020600181928786015181550195019301610418565b60036000529091507fc2575a0e9e593c00f959f8c92f12db2869c3395a3b0502d05e2516446f71f85b601f840160051c810191602085106104d3575b90601f859493920160051c01905b8181106104c457506100d3565b600081558493506001016104b7565b90915081906104a9565b91607f16916100bf565b600080fd5b601f909101601f19168101906001600160401b038211908210176103e457604052565b908151602081106000146105a7575090601f81511161054b57602081519101516020821061053b571790565b6000198260200360031b1b161790565b6040519063305a27a960e01b8252602060048301528181519182602483015260005b83811061058f5750508160006044809484010152601f80199101168101030190fd5b6020828201810151604487840101528593500161056d565b6001600160401b0381116103e457600554600181811c911680156106b3575b60208210146103c457601f811161067d575b50602092601f8211600114610618579281929360009261060d575b50508160011b916000199060031b1c19161760055560ff90565b0151905038806105f3565b601f198216936005600052806000209160005b868110610665575083600195961061064c575b505050811b0160055560ff90565b015160001960f88460031b161c1916905538808061063e565b9192602060018192868501518155019401920161062b565b6005600052601f6020600020910160051c810190601f830160051c015b8181106106a757506105d8565b6000815560010161069a565b90607f16906105c6565b90815160208110600014610745575090601f8151116106e957602081519101516020821061053b571790565b6040519063305a27a960e01b8252602060048301528181519182602483015260005b83811061072d5750508160006044809484010152601f80199101168101030190fd5b6020828201810151604487840101528593500161070b565b6001600160401b0381116103e457600654600181811c91168015610851575b60208210146103c457601f811161081b575b50602092601f82116001146107b657928192936000926107ab575b50508160011b916000199060031b1c19161760065560ff90565b015190503880610791565b601f198216936006600052806000209160005b86811061080357508360019596106107ea575b505050811b0160065560ff90565b015160001960f88460031b161c191690553880806107dc565b919260206001819286850151815501940192016107c9565b6006600052601f6020600020910160051c810190601f830160051c015b8181106108455750610776565b60008155600101610838565b90607f169061076456fe608080604052600436101561001357600080fd5b60003560e01c90816306fdde031461064657508063095ea7b31461062057806318160ddd1461060257806323b872dd14610515578063313ce567146104f95780633644e515146104d657806370a082311461049c5780637ecebe001461046257806384b0196e1461036557806395d89b4114610280578063a9059cbb1461024f578063d505accf146101045763dd62ed3e146100ae57600080fd5b346100ff5760403660031901126100ff576100c761072c565b6100cf610742565b6001600160a01b039182166000908152600160209081526040808320949093168252928352819020549051908152f35b600080fd5b346100ff5760e03660031901126100ff5761011d61072c565b610125610742565b604435906064359260843560ff811681036100ff5784421161023a576101fb6102049160018060a01b038416968760005260076020526040600020908154916001830190556040519060208201927f6e71edae12b1b97f4d1f60370fef10105fa2faae0126114a169c64845d6126c984528a604084015260018060a01b038916606084015289608084015260a083015260c082015260c081526101c960e082610815565b5190206101d4610912565b906040519161190160f01b83526002830152602282015260c43591604260a4359220610b33565b90929192610bc8565b6001600160a01b0316848103610221575061021f9350610a2e565b005b84906325c0072360e11b60005260045260245260446000fd5b8463313c898160e11b60005260045260246000fd5b346100ff5760403660031901126100ff5761027561026b61072c565b602435903361084d565b602060405160018152f35b346100ff5760003660031901126100ff5760405160006004546102a281610758565b808452906001811690811561034157506001146102e2575b6102de836102ca81850382610815565b6040519182916020835260208301906106eb565b0390f35b600460009081527f8a35acfbc15ff81a39ae7d344fd709f28e8600b4aa8c65c6b64bfe7fe36bd19b939250905b808210610327575090915081016020016102ca6102ba565b91926001816020925483858801015201910190929161030f565b60ff191660208086019190915291151560051b840190910191506102ca90506102ba565b346100ff5760003660031901126100ff576104046103a27f0000000000000000000000000000000000000000000000000000000000000000610a95565b6103cb7f0000000000000000000000000000000000000000000000000000000000000000610afc565b6020610412604051926103de8385610815565b600084526000368137604051958695600f60f81b875260e08588015260e08701906106eb565b9085820360408701526106eb565b466060850152306080850152600060a085015283810360c085015281808451928381520193019160005b82811061044b57505050500390f35b83518552869550938101939281019260010161043c565b346100ff5760203660031901126100ff576001600160a01b0361048361072c565b1660005260076020526020604060002054604051908152f35b346100ff5760203660031901126100ff576001600160a01b036104bd61072c565b1660005260006020526020604060002054604051908152f35b346100ff5760003660031901126100ff5760206104f1610912565b604051908152f35b346100ff5760003660031901126100ff57602060405160128152f35b346100ff5760603660031901126100ff5761052e61072c565b610536610742565b6001600160a01b0382166000818152600160208181526040808420338552909152909120549193604435939290918101610576575b50610275935061084d565b8381106105e55784156105cf5733156105b957610275946000526001602052604060002060018060a01b033316600052602052836040600020910390558461056b565b634a1406b160e11b600052600060045260246000fd5b63e602df0560e01b600052600060045260246000fd5b8390637dc7a0d960e11b6000523360045260245260445260646000fd5b346100ff5760003660031901126100ff576020600254604051908152f35b346100ff5760403660031901126100ff5761027561063c61072c565b6024359033610a2e565b346100ff5760003660031901126100ff57600060035461066581610758565b8084529060018116908115610341575060011461068c576102de836102ca81850382610815565b600360009081527fc2575a0e9e593c00f959f8c92f12db2869c3395a3b0502d05e2516446f71f85b939250905b8082106106d1575090915081016020016102ca6102ba565b9192600181602092548385880101520191019092916106b9565b919082519283825260005b848110610717575050826000602080949584010152601f8019910116010190565b806020809284010151828286010152016106f6565b600435906001600160a01b03821682036100ff57565b602435906001600160a01b03821682036100ff57565b90600182811c92168015610788575b602083101461077257565b634e487b7160e01b600052602260045260246000fd5b91607f1691610767565b600092918154916107a283610758565b80835292600181169081156107f857506001146107be57505050565b60009081526020812093945091925b8383106107de575060209250010190565b6001816020929493945483858701015201910191906107cd565b915050602093945060ff929192191683830152151560051b010190565b90601f8019910116810190811067ffffffffffffffff82111761083757604052565b634e487b7160e01b600052604160045260246000fd5b6001600160a01b03169081156108fc576001600160a01b03169182156108e65760008281528060205260408120548281106108cc5791604082827fddf252ad1be2c89b69c2b068fc378daa952ba7f163c4a11628f55a4df523b3ef958760209652828652038282205586815280845220818154019055604051908152a3565b916064928463391434e360e21b8452600452602452604452fd5b63ec442f0560e01b600052600060045260246000fd5b634b637e8f60e11b600052600060045260246000fd5b307f00000000000000000000000000000000000000000000000000000000000000006001600160a01b03161480610a05575b1561096d577f000000000000000000000000000000000000000000000000000000000000000090565b60405160208101907f8b73c3c69bb8fe3d512ecc4cf759cc79239f7b179b0ffacaa9a75d522b39400f82527f000000000000000000000000000000000000000000000000000000000000000060408201527f000000000000000000000000000000000000000000000000000000000000000060608201524660808201523060a082015260a081526109ff60c082610815565b51902090565b507f00000000000000000000000000000000000000000000000000000000000000004614610944565b6001600160a01b03169081156105cf576001600160a01b03169182156105b95760207f8c5be1e5ebec7d5bd14f71427d1e84f3dd0314c0f7b2291e5b200ac8c7c3b925918360005260018252604060002085600052825280604060002055604051908152a3565b60ff8114610adf5760ff811690601f8211610ace576040805192610ab98285610815565b6020808552840191601f190136833783525290565b632cd44ac360e21b60005260046000fd5b50604051610af981610af2816005610792565b0382610815565b90565b60ff8114610b205760ff811690601f8211610ace576040805192610ab98285610815565b50604051610af981610af2816006610792565b91907f7fffffffffffffffffffffffffffffff5d576e7357a4501ddfe92f46681b20a08411610bbc579160209360809260ff60009560405194855216868401526040830152606082015282805260015afa15610bb0576000516001600160a01b03811615610ba45790600090600090565b50600090600190600090565b6040513d6000823e3d90fd5b50505060009160039190565b9190916004811015610c3a5780610bde57509050565b600060018203610bf95763f645eedf60e01b60005260046000fd5b5060028103610c17578263fce698f760e01b60005260045260246000fd5b9091600360009214610c27575050565b6335e2f38360e21b825260045260249150fd5b634e487b7160e01b600052602160045260246000fdfea26469706673582212203029d7fbd71c8f0f8bdedcae78a5d75a30c36fec5b14fe6f370bcc02b0829fd464736f6c634300081c0033",
  "linkReferences": {},
  "deployedLinkReferences": {}
}