{
  "_format": "hh-sol-artifact-1",
  "contractName": "GaiaProtocolTokenTestnet",
  "sourceName": "contracts/token/GaiaProtocolTokenTestnet.sol",
  "abi": [
    {
      "inputs": [],
      "stateMutability": "nonpayable",
      "type": "constructor"
    },
    {
      "inputs": [
        {
          "internalType": "address",
          "name": "spender",
          "type": "address"
        },
        {
          "internalType": "uint256",
          "name": "allowance",
          "type": "uint256"
        },
        {
          "internalType": "uint256",
          "name": "needed",
          "type": "uint256"
        }
      ],
      "name": "ERC20InsufficientAllowance",
      "type": "error"
    },
    {
      "inputs": [
        {
          "internalType": "address",
          "name": "sender",
          "type": "address"
        },
        {
          "internalType": "uint256",
          "name": "balance",
          "type": "uint256"
        },
        {
          "internalType": "uint256",
          "name": "needed",
          "type": "uint256"
        }
      ],
      "name": "ERC20InsufficientBalance",
      "type": "error"
    },
    {
      "inputs": [
        {
          "internalType": "address",
          "name": "approver",
          "type": "address"
        }
      ],
      "name": "ERC20InvalidApprover",
      "type": "error"
    },
    {
      "inputs": [
        {
          "internalType": "address",
          "name": "receiver",
          "type": "address"
        }
      ],
      "name": "ERC20InvalidReceiver",
      "type": "error"
    },
    {
      "inputs": [
        {
          "internalType": "address",
          "name": "sender",
          "type": "address"
        }
      ],
      "name": "ERC20InvalidSender",
      "type": "error"
    },
    {
      "inputs": [
        {
          "internalType": "address",
          "name": "spender",
          "type": "address"
        }
      ],
      "name": "ERC20InvalidSpender",
      "type": "error"
    },
    {
      "anonymous": false,
      "inputs": [
        {
          "indexed": true,
          "internalType": "address",
          "name": "owner",
          "type": "address"
        },
        {
          "indexed": true,
          "internalType": "address",
          "name": "spender",
          "type": "address"
        },
        {
          "indexed": false,
          "internalType": "uint256",
          "name": "value",
          "type": "uint256"
        }
      ],
      "name": "Approval",
      "type": "event"
    },
    {
      "anonymous": false,
      "inputs": [
        {
          "indexed": true,
          "internalType": "address",
          "name": "from",
          "type": "address"
        },
        {
          "indexed": true,
          "internalType": "address",
          "name": "to",
          "type": "address"
        },
        {
          "indexed": false,
          "internalType": "uint256",
          "name": "value",
          "type": "uint256"
        }
      ],
      "name": "Transfer",
      "type": "event"
    },
    {
      "inputs": [
        {
          "internalType": "address",
          "name": "owner",
          "type": "address"
        },
        {
          "internalType": "address",
          "name": "spender",
          "type": "address"
        }
      ],
      "name": "allowance",
      "outputs": [
        {
          "internalType": "uint256",
          "name": "",
          "type": "uint256"
        }
      ],
      "stateMutability": "view",
      "type": "function"
    },
    {
      "inputs": [
        {
          "internalType": "address",
          "name": "spender",
          "type": "address"
        },
        {
          "internalType": "uint256",
          "name": "value",
          "type": "uint256"
        }
      ],
      "name": "approve",
      "outputs": [
        {
          "internalType": "bool",
          "name": "",
          "type": "bool"
        }
      ],
      "stateMutability": "nonpayable",
      "type": "function"
    },
    {
      "inputs": [
        {
          "internalType": "address",
          "name": "account",
          "type": "address"
        }
      ],
      "name": "balanceOf",
      "outputs": [
        {
          "internalType": "uint256",
          "name": "",
          "type": "uint256"
        }
      ],
      "stateMutability": "view",
      "type": "function"
    },
    {
      "inputs": [],
      "name": "decimals",
      "outputs": [
        {
          "internalType": "uint8",
          "name": "",
          "type": "uint8"
        }
      ],
      "stateMutability": "view",
      "type": "function"
    },
    {
      "inputs": [
        {
          "internalType": "uint256",
          "name": "amount",
          "type": "uint256"
        }
      ],
      "name": "mint",
      "outputs": [],
      "stateMutability": "nonpayable",
      "type": "function"
    },
    {
      "inputs": [],
      "name": "name",
      "outputs": [
        {
          "internalType": "string",
          "name": "",
          "type": "string"
        }
      ],
      "stateMutability": "view",
      "type": "function"
    },
    {
      "inputs": [],
      "name": "symbol",
      "outputs": [
        {
          "internalType": "string",
          "name": "",
          "type": "string"
        }
      ],
      "stateMutability": "view",
      "type": "function"
    },
    {
      "inputs": [],
      "name": "totalSupply",
      "outputs": [
        {
          "internalType": "uint256",
          "name": "",
          "type": "uint256"
        }
      ],
      "stateMutability": "view",
      "type": "function"
    },
    {
      "inputs": [
        {
          "internalType": "address",
          "name": "to",
          "type": "address"
        },
        {
          "internalType": "uint256",
          "name": "value",
          "type": "uint256"
        }
      ],
      "name": "transfer",
      "outputs": [
        {
          "internalType": "bool",
          "name": "",
          "type": "bool"
        }
      ],
      "stateMutability": "nonpayable",
      "type": "function"
    },
    {
      "inputs": [
        {
          "internalType": "address",
          "name": "from",
          "type": "address"
        },
        {
          "internalType": "address",
          "name": "to",
          "type": "address"
        },
        {
          "internalType": "uint256",
          "name": "value",
          "type": "uint256"
        }
      ],
      "name": "transferFrom",
      "outputs": [
        {
          "internalType": "bool",
          "name": "",
          "type": "bool"
        }
      ],
      "stateMutability": "nonpayable",
      "type": "function"
    }
  ],
  "bytecode": "0x60806040523461032b57604080519081016001600160401b03811182821017610236576040908152600d82526c11d85a5848141c9bdd1bd8dbdb609a1b602083015280519081016001600160401b038111828210176102365760405260048152634741494160e01b602082015281516001600160401b03811161023657600354600181811c91168015610321575b602082101461021657601f81116102bc575b50602092601f8211600114610257579281929360009261024c575b50508160011b916000199060031b1c1916176003555b80516001600160401b03811161023657600454600181811c9116801561022c575b602082101461021657601f81116101b1575b50602091601f821160011461014d57918192600092610142575b50508160011b916000199060031b1c1916176004555b60405161075590816103318239f35b01519050388061011d565b601f198216926004600052806000209160005b85811061019957508360019510610180575b505050811b01600455610133565b015160001960f88460031b161c19169055388080610172565b91926020600181928685015181550194019201610160565b60046000527f8a35acfbc15ff81a39ae7d344fd709f28e8600b4aa8c65c6b64bfe7fe36bd19b601f830160051c8101916020841061020c575b601f0160051c01905b8181106102005750610103565b600081556001016101f3565b90915081906101ea565b634e487b7160e01b600052602260045260246000fd5b90607f16906100f1565b634e487b7160e01b600052604160045260246000fd5b0151905038806100ba565b601f198216936003600052806000209160005b8681106102a4575083600195961061028b575b505050811b016003556100d0565b015160001960f88460031b161c1916905538808061027d565b9192602060018192868501518155019401920161026a565b60036000527fc2575a0e9e593c00f959f8c92f12db2869c3395a3b0502d05e2516446f71f85b601f830160051c81019160208410610317575b601f0160051c01905b81811061030b575061009f565b600081556001016102fe565b90915081906102f5565b90607f169061008d565b600080fdfe608080604052600436101561001357600080fd5b60003560e01c90816306fdde031461052857508063095ea7b3146104a257806318160ddd1461048457806323b872dd14610397578063313ce5671461037b57806370a082311461034157806395d89b4114610220578063a0712d6814610114578063a9059cbb146100e35763dd62ed3e1461008d57600080fd5b346100de5760403660031901126100de576100a6610644565b6100ae61065a565b6001600160a01b039182166000908152600160209081526040808320949093168252928352819020549051908152f35b600080fd5b346100de5760403660031901126100de576101096100ff610644565b6024359033610670565b602060405160018152f35b346100de5760203660031901126100de5760043569021e19e0c9bab240000081116101bf5733156101a957600254818101809111610193576002556000903382528160205260408220818154019055604051908152817fddf252ad1be2c89b69c2b068fc378daa952ba7f163c4a11628f55a4df523b3ef60203393a380f35b634e487b7160e01b600052601160045260246000fd5b63ec442f0560e01b600052600060045260246000fd5b60405162461bcd60e51b815260206004820152603360248201527f4761696150726f746f636f6c546f6b656e546573746e65743a206d6178206d6960448201527206e7420616d6f756e742069732031302c30303606c1b6064820152608490fd5b346100de5760003660031901126100de5760405160006004548060011c90600181168015610337575b6020831081146103235782855290811561030757506001146102b0575b50819003601f01601f191681019067ffffffffffffffff82118183101761029a57610296829182604052826105fb565b0390f35b634e487b7160e01b600052604160045260246000fd5b905060046000527f8a35acfbc15ff81a39ae7d344fd709f28e8600b4aa8c65c6b64bfe7fe36bd19b6000905b8282106102f157506020915082010182610266565b60018160209254838588010152019101906102dc565b90506020925060ff191682840152151560051b82010182610266565b634e487b7160e01b84526022600452602484fd5b91607f1691610249565b346100de5760203660031901126100de576001600160a01b03610362610644565b1660005260006020526020604060002054604051908152f35b346100de5760003660031901126100de57602060405160128152f35b346100de5760603660031901126100de576103b0610644565b6103b861065a565b6001600160a01b03821660008181526001602081815260408084203385529091529091205491936044359392909181016103f8575b506101099350610670565b83811061046757841561045157331561043b57610109946000526001602052604060002060018060a01b03331660005260205283604060002091039055846103ed565b634a1406b160e11b600052600060045260246000fd5b63e602df0560e01b600052600060045260246000fd5b8390637dc7a0d960e11b6000523360045260245260445260646000fd5b346100de5760003660031901126100de576020600254604051908152f35b346100de5760403660031901126100de576104bb610644565b602435903315610451576001600160a01b031690811561043b57336000526001602052604060002082600052602052806040600020556040519081527f8c5be1e5ebec7d5bd14f71427d1e84f3dd0314c0f7b2291e5b200ac8c7c3b92560203392a3602060405160018152f35b346100de5760003660031901126100de5760006003548060011c906001811680156105f1575b60208310811461032357828552908115610307575060011461059a5750819003601f01601f191681019067ffffffffffffffff82118183101761029a57610296829182604052826105fb565b905060036000527fc2575a0e9e593c00f959f8c92f12db2869c3395a3b0502d05e2516446f71f85b6000905b8282106105db57506020915082010182610266565b60018160209254838588010152019101906105c6565b91607f169161054e565b91909160208152825180602083015260005b81811061062e575060409293506000838284010152601f8019910116010190565b806020809287010151604082860101520161060d565b600435906001600160a01b03821682036100de57565b602435906001600160a01b03821682036100de57565b6001600160a01b0316908115610709576001600160a01b03169182156101a95760008281528060205260408120548281106106ef5791604082827fddf252ad1be2c89b69c2b068fc378daa952ba7f163c4a11628f55a4df523b3ef958760209652828652038282205586815280845220818154019055604051908152a3565b916064928463391434e360e21b8452600452602452604452fd5b634b637e8f60e11b600052600060045260246000fdfea2646970667358221220fa9167f85a3004e951ed587f728875e02c451adc6cd06107ffacfb41ffb3113c64736f6c634300081c0033",
  "linkReferences": {},
  "deployedLinkReferences": {}
}